{
  "_format": "hh-sol-artifact-1",
  "contractName": "WattEther",
  "sourceName": "contracts/WattEther.sol",
  "abi": [
    {
      "inputs": [
        {
          "internalType": "string",
          "name": "_baseURI",
          "type": "string"
        }
      ],
      "stateMutability": "nonpayable",
      "type": "constructor"
    },
    {
      "anonymous": false,
      "inputs": [
        {
          "indexed": true,
          "internalType": "address",
          "name": "owner",
          "type": "address"
        },
        {
          "indexed": true,
          "internalType": "address",
          "name": "approved",
          "type": "address"
        },
        {
          "indexed": true,
          "internalType": "uint256",
          "name": "tokenId",
          "type": "uint256"
        }
      ],
      "name": "Approval",
      "type": "event"
    },
    {
      "anonymous": false,
      "inputs": [
        {
          "indexed": true,
          "internalType": "address",
          "name": "owner",
          "type": "address"
        },
        {
          "indexed": true,
          "internalType": "address",
          "name": "operator",
          "type": "address"
        },
        {
          "indexed": false,
          "internalType": "bool",
          "name": "approved",
          "type": "bool"
        }
      ],
      "name": "ApprovalForAll",
      "type": "event"
    },
    {
      "anonymous": false,
      "inputs": [
        {
          "indexed": true,
          "internalType": "address",
          "name": "previousOwner",
          "type": "address"
        },
        {
          "indexed": true,
          "internalType": "address",
          "name": "newOwner",
          "type": "address"
        }
      ],
      "name": "OwnershipTransferred",
      "type": "event"
    },
    {
      "anonymous": false,
      "inputs": [
        {
          "indexed": true,
          "internalType": "address",
          "name": "from",
          "type": "address"
        },
        {
          "indexed": true,
          "internalType": "address",
          "name": "to",
          "type": "address"
        },
        {
          "indexed": true,
          "internalType": "uint256",
          "name": "tokenId",
          "type": "uint256"
        }
      ],
      "name": "Transfer",
      "type": "event"
    },
    {
      "inputs": [
        {
          "internalType": "address",
          "name": "",
          "type": "address"
        }
      ],
      "name": "amountNFTsperWallet",
      "outputs": [
        {
          "internalType": "uint256",
          "name": "",
          "type": "uint256"
        }
      ],
      "stateMutability": "view",
      "type": "function"
    },
    {
      "inputs": [
        {
          "internalType": "address",
          "name": "to",
          "type": "address"
        },
        {
          "internalType": "uint256",
          "name": "tokenId",
          "type": "uint256"
        }
      ],
      "name": "approve",
      "outputs": [],
      "stateMutability": "nonpayable",
      "type": "function"
    },
    {
      "inputs": [
        {
          "internalType": "address",
          "name": "owner",
          "type": "address"
        }
      ],
      "name": "balanceOf",
      "outputs": [
        {
          "internalType": "uint256",
          "name": "",
          "type": "uint256"
        }
      ],
      "stateMutability": "view",
      "type": "function"
    },
    {
      "inputs": [],
      "name": "baseURI",
      "outputs": [
        {
          "internalType": "string",
          "name": "",
          "type": "string"
        }
      ],
      "stateMutability": "view",
      "type": "function"
    },
    {
      "inputs": [
        {
          "internalType": "uint256",
          "name": "tokenId",
          "type": "uint256"
        }
      ],
      "name": "getApproved",
      "outputs": [
        {
          "internalType": "address",
          "name": "",
          "type": "address"
        }
      ],
      "stateMutability": "view",
      "type": "function"
    },
    {
      "inputs": [
        {
          "internalType": "address",
          "name": "owner",
          "type": "address"
        },
        {
          "internalType": "address",
          "name": "operator",
          "type": "address"
        }
      ],
      "name": "isApprovedForAll",
      "outputs": [
        {
          "internalType": "bool",
          "name": "",
          "type": "bool"
        }
      ],
      "stateMutability": "view",
      "type": "function"
    },
    {
      "inputs": [],
      "name": "mint",
      "outputs": [],
      "stateMutability": "payable",
      "type": "function"
    },
    {
      "inputs": [],
      "name": "name",
      "outputs": [
        {
          "internalType": "string",
          "name": "",
          "type": "string"
        }
      ],
      "stateMutability": "view",
      "type": "function"
    },
    {
      "inputs": [],
      "name": "nftPrice",
      "outputs": [
        {
          "internalType": "uint256",
          "name": "",
          "type": "uint256"
        }
      ],
      "stateMutability": "view",
      "type": "function"
    },
    {
      "inputs": [],
      "name": "owner",
      "outputs": [
        {
          "internalType": "address",
          "name": "",
          "type": "address"
        }
      ],
      "stateMutability": "view",
      "type": "function"
    },
    {
      "inputs": [
        {
          "internalType": "uint256",
          "name": "tokenId",
          "type": "uint256"
        }
      ],
      "name": "ownerOf",
      "outputs": [
        {
          "internalType": "address",
          "name": "",
          "type": "address"
        }
      ],
      "stateMutability": "view",
      "type": "function"
    },
    {
      "inputs": [],
      "name": "renounceOwnership",
      "outputs": [],
      "stateMutability": "nonpayable",
      "type": "function"
    },
    {
      "inputs": [
        {
          "internalType": "address",
          "name": "from",
          "type": "address"
        },
        {
          "internalType": "address",
          "name": "to",
          "type": "address"
        },
        {
          "internalType": "uint256",
          "name": "tokenId",
          "type": "uint256"
        }
      ],
      "name": "safeTransferFrom",
      "outputs": [],
      "stateMutability": "nonpayable",
      "type": "function"
    },
    {
      "inputs": [
        {
          "internalType": "address",
          "name": "from",
          "type": "address"
        },
        {
          "internalType": "address",
          "name": "to",
          "type": "address"
        },
        {
          "internalType": "uint256",
          "name": "tokenId",
          "type": "uint256"
        },
        {
          "internalType": "bytes",
          "name": "_data",
          "type": "bytes"
        }
      ],
      "name": "safeTransferFrom",
      "outputs": [],
      "stateMutability": "nonpayable",
      "type": "function"
    },
    {
      "inputs": [
        {
          "internalType": "address",
          "name": "operator",
          "type": "address"
        },
        {
          "internalType": "bool",
          "name": "approved",
          "type": "bool"
        }
      ],
      "name": "setApprovalForAll",
      "outputs": [],
      "stateMutability": "nonpayable",
      "type": "function"
    },
    {
      "inputs": [
        {
          "internalType": "string",
          "name": "_baseURI",
          "type": "string"
        }
      ],
      "name": "setBaseUri",
      "outputs": [],
      "stateMutability": "nonpayable",
      "type": "function"
    },
    {
      "inputs": [
        {
          "internalType": "bytes4",
          "name": "interfaceId",
          "type": "bytes4"
        }
      ],
      "name": "supportsInterface",
      "outputs": [
        {
          "internalType": "bool",
          "name": "",
          "type": "bool"
        }
      ],
      "stateMutability": "view",
      "type": "function"
    },
    {
      "inputs": [],
      "name": "symbol",
      "outputs": [
        {
          "internalType": "string",
          "name": "",
          "type": "string"
        }
      ],
      "stateMutability": "view",
      "type": "function"
    },
    {
      "inputs": [
        {
          "internalType": "uint256",
          "name": "index",
          "type": "uint256"
        }
      ],
      "name": "tokenByIndex",
      "outputs": [
        {
          "internalType": "uint256",
          "name": "",
          "type": "uint256"
        }
      ],
      "stateMutability": "view",
      "type": "function"
    },
    {
      "inputs": [
        {
          "internalType": "address",
          "name": "owner",
          "type": "address"
        },
        {
          "internalType": "uint256",
          "name": "index",
          "type": "uint256"
        }
      ],
      "name": "tokenOfOwnerByIndex",
      "outputs": [
        {
          "internalType": "uint256",
          "name": "",
          "type": "uint256"
        }
      ],
      "stateMutability": "view",
      "type": "function"
    },
    {
      "inputs": [
        {
          "internalType": "uint256",
          "name": "_tokenId",
          "type": "uint256"
        }
      ],
      "name": "tokenURI",
      "outputs": [
        {
          "internalType": "string",
          "name": "",
          "type": "string"
        }
      ],
      "stateMutability": "view",
      "type": "function"
    },
    {
      "inputs": [],
      "name": "totalSupply",
      "outputs": [
        {
          "internalType": "uint256",
          "name": "",
          "type": "uint256"
        }
      ],
      "stateMutability": "view",
      "type": "function"
    },
    {
      "inputs": [
        {
          "internalType": "address",
          "name": "from",
          "type": "address"
        },
        {
          "internalType": "address",
          "name": "to",
          "type": "address"
        },
        {
          "internalType": "uint256",
          "name": "tokenId",
          "type": "uint256"
        }
      ],
      "name": "transferFrom",
      "outputs": [],
      "stateMutability": "nonpayable",
      "type": "function"
    },
    {
      "inputs": [
        {
          "internalType": "address",
          "name": "newOwner",
          "type": "address"
        }
      ],
      "name": "transferOwnership",
      "outputs": [],
      "stateMutability": "nonpayable",
      "type": "function"
    },
    {
      "inputs": [],
      "name": "withdrawMoney",
      "outputs": [],
      "stateMutability": "nonpayable",
      "type": "function"
    }
  ],
  "bytecode": "0x608060405265b5e620f48000600a553480156200001b57600080fd5b5060405162001ef938038062001ef98339810160408190526200003e91620001f7565b604051806040016040528060098152602001682bb0ba3a22ba3432b960b91b815250604051806040016040528060048152602001631310539160e21b8152506200009762000091620000e760201b60201c565b620000eb565b8151620000ac9060029060208501906200013b565b508051620000c29060039060208401906200013b565b50506001600855508051620000df9060099060208401906200013b565b505062000310565b3390565b600080546001600160a01b038381166001600160a01b0319831681178455604051919092169283917f8be0079c531659141344cd1fd0a4f28419497f9722a3daafe3b4186f6b6457e09190a35050565b8280546200014990620002d3565b90600052602060002090601f0160209004810192826200016d5760008555620001b8565b82601f106200018857805160ff1916838001178555620001b8565b82800160010185558215620001b8579182015b82811115620001b85782518255916020019190600101906200019b565b50620001c6929150620001ca565b5090565b5b80821115620001c65760008155600101620001cb565b634e487b7160e01b600052604160045260246000fd5b600060208083850312156200020b57600080fd5b82516001600160401b03808211156200022357600080fd5b818501915085601f8301126200023857600080fd5b8151818111156200024d576200024d620001e1565b604051601f8201601f19908116603f01168101908382118183101715620002785762000278620001e1565b8160405282815288868487010111156200029157600080fd5b600093505b82841015620002b5578484018601518185018701529285019262000296565b82841115620002c75760008684830101525b98975050505050505050565b600181811c90821680620002e857607f821691505b602082108114156200030a57634e487b7160e01b600052602260045260246000fd5b50919050565b611bd980620003206000396000f3fe6080604052600436106101665760003560e01c80636352211e116100d1578063a0bcfc7f1161008a578063b88d4fde11610064578063b88d4fde146103fc578063c87b56dd1461041c578063e985e9c51461043c578063f2fde38b1461048557600080fd5b8063a0bcfc7f146103a7578063a22cb465146103c7578063ac446002146103e757600080fd5b80636352211e1461030a5780636c0360eb1461032a57806370a082311461033f578063715018a61461035f5780638da5cb5b1461037457806395d89b411461039257600080fd5b806318160ddd1161012357806318160ddd1461024857806323b872dd1461025d5780632f745c591461027d57806342842e0e1461029d578063499a4687146102bd5780634f6ccce7146102ea57600080fd5b806301ffc9a71461016b57806306fdde03146101a0578063081812fc146101c2578063095ea7b3146101fa5780630d39fc811461021c5780631249c58b14610240575b600080fd5b34801561017757600080fd5b5061018b6101863660046116ff565b6104a5565b60405190151581526020015b60405180910390f35b3480156101ac57600080fd5b506101b5610512565b6040516101979190611770565b3480156101ce57600080fd5b506101e26101dd366004611783565b6105a4565b6040516001600160a01b039091168152602001610197565b34801561020657600080fd5b5061021a6102153660046117b8565b610634565b005b34801561022857600080fd5b50610232600a5481565b604051908152602001610197565b61021a61074c565b34801561025457600080fd5b50600154610232565b34801561026957600080fd5b5061021a6102783660046117e2565b61085f565b34801561028957600080fd5b506102326102983660046117b8565b61086a565b3480156102a957600080fd5b5061021a6102b83660046117e2565b6109d2565b3480156102c957600080fd5b506102326102d836600461181e565b600b6020526000908152604090205481565b3480156102f657600080fd5b50610232610305366004611783565b6109ed565b34801561031657600080fd5b506101e2610325366004611783565b610a56565b34801561033657600080fd5b506101b5610a68565b34801561034b57600080fd5b5061023261035a36600461181e565b610af6565b34801561036b57600080fd5b5061021a610b87565b34801561038057600080fd5b506000546001600160a01b03166101e2565b34801561039e57600080fd5b506101b5610b9b565b3480156103b357600080fd5b5061021a6103c23660046118c5565b610baa565b3480156103d357600080fd5b5061021a6103e236600461190e565b610bc9565b3480156103f357600080fd5b5061021a610c8e565b34801561040857600080fd5b5061021a61041736600461194a565b610d81565b34801561042857600080fd5b506101b5610437366004611783565b610dba565b34801561044857600080fd5b5061018b6104573660046119c6565b6001600160a01b03918216600090815260076020908152604080832093909416825291909152205460ff1690565b34801561049157600080fd5b5061021a6104a036600461181e565b610e3b565b60006001600160e01b031982166380ac58cd60e01b14806104d657506001600160e01b03198216635b5e139f60e01b145b806104f157506001600160e01b0319821663780e9d6360e01b145b8061050c57506301ffc9a760e01b6001600160e01b03198316145b92915050565b606060028054610521906119f9565b80601f016020809104026020016040519081016040528092919081815260200182805461054d906119f9565b801561059a5780601f1061056f5761010080835404028352916020019161059a565b820191906000526020600020905b81548152906001019060200180831161057d57829003601f168201915b5050505050905090565b60006105b1826001541190565b6106185760405162461bcd60e51b815260206004820152602d60248201527f455243373231413a20617070726f76656420717565727920666f72206e6f6e6560448201526c3c34b9ba32b73a103a37b5b2b760991b60648201526084015b60405180910390fd5b506000908152600660205260409020546001600160a01b031690565b600061063f82610a56565b9050806001600160a01b0316836001600160a01b031614156106ae5760405162461bcd60e51b815260206004820152602260248201527f455243373231413a20617070726f76616c20746f2063757272656e74206f776e60448201526132b960f11b606482015260840161060f565b336001600160a01b03821614806106ca57506106ca8133610457565b61073c5760405162461bcd60e51b815260206004820152603960248201527f455243373231413a20617070726f76652063616c6c6572206973206e6f74206f60448201527f776e6572206e6f7220617070726f76656420666f7220616c6c00000000000000606482015260840161060f565b610747838383610eb4565b505050565b336000908152600b602052604090205460039061076a906001611a34565b11156107b85760405162461bcd60e51b815260206004820152601860248201527f4d6178696d756d2033204e4654207061722077616c6c65740000000000000000604482015260640161060f565b60966107c360015490565b6107ce906001611a34565b111561082d5760405162461bcd60e51b815260206004820152602860248201527f566f7573206d696e74657a20706c75732064274e465420717565206c61206d616044820152677820737570706c7960c01b606482015260840161060f565b610838336001610f10565b336000908152600b60205260408120805460019290610858908490611a34565b9091555050565b610747838383610f2a565b600061087583610af6565b82106108ce5760405162461bcd60e51b815260206004820152602260248201527f455243373231413a206f776e657220696e646578206f7574206f6620626f756e604482015261647360f01b606482015260840161060f565b60006108d960015490565b905060008060005b83811015610972576000818152600460209081526040918290208251808401909352546001600160a01b038116808452600160a01b90910467ffffffffffffffff16918301919091521561093457805192505b876001600160a01b0316836001600160a01b0316141561096957868414156109625750935061050c92505050565b6001909301925b506001016108e1565b5060405162461bcd60e51b815260206004820152602e60248201527f455243373231413a20756e61626c6520746f2067657420746f6b656e206f662060448201526d0deeedccae440c4f240d2dcc8caf60931b606482015260840161060f565b61074783838360405180602001604052806000815250610d81565b60006109f860015490565b8210610a525760405162461bcd60e51b815260206004820152602360248201527f455243373231413a20676c6f62616c20696e646578206f7574206f6620626f756044820152626e647360e81b606482015260840161060f565b5090565b6000610a618261120f565b5192915050565b60098054610a75906119f9565b80601f0160208091040260200160405190810160405280929190818152602001828054610aa1906119f9565b8015610aee5780601f10610ac357610100808354040283529160200191610aee565b820191906000526020600020905b815481529060010190602001808311610ad157829003601f168201915b505050505081565b60006001600160a01b038216610b625760405162461bcd60e51b815260206004820152602b60248201527f455243373231413a2062616c616e636520717565727920666f7220746865207a60448201526a65726f206164647265737360a81b606482015260840161060f565b506001600160a01b03166000908152600560205260409020546001600160801b031690565b610b8f6112e6565b610b996000611340565b565b606060038054610521906119f9565b610bb26112e6565b8051610bc5906009906020840190611659565b5050565b6001600160a01b038216331415610c225760405162461bcd60e51b815260206004820152601a60248201527f455243373231413a20617070726f766520746f2063616c6c6572000000000000604482015260640161060f565b3360008181526007602090815260408083206001600160a01b03871680855290835292819020805460ff191686151590811790915590519081529192917f17307eab39ab6107e8899845ad3d59bd9653f200f220920489ca2b5937696c31910160405180910390a35050565b610c966112e6565b60026008541415610ce95760405162461bcd60e51b815260206004820152601f60248201527f5265656e7472616e637947756172643a207265656e7472616e742063616c6c00604482015260640161060f565b6002600855604051600090339047908381818185875af1925050503d8060008114610d30576040519150601f19603f3d011682016040523d82523d6000602084013e610d35565b606091505b5050905080610d795760405162461bcd60e51b815260206004820152601060248201526f2a3930b739b332b9103330b4b632b21760811b604482015260640161060f565b506001600855565b610d8c848484610f2a565b610d9884848484611390565b610db45760405162461bcd60e51b815260040161060f90611a5a565b50505050565b6060610dc7826001541190565b610e135760405162461bcd60e51b815260206004820152601c60248201527f4c6520746f6b656e206e276578697374652070617320656e636f726500000000604482015260640161060f565b6009604051602001610e259190611aad565b6040516020818303038152906040529050919050565b610e436112e6565b6001600160a01b038116610ea85760405162461bcd60e51b815260206004820152602660248201527f4f776e61626c653a206e6577206f776e657220697320746865207a65726f206160448201526564647265737360d01b606482015260840161060f565b610eb181611340565b50565b60008281526006602052604080822080546001600160a01b0319166001600160a01b0387811691821790925591518593918516917f8c5be1e5ebec7d5bd14f71427d1e84f3dd0314c0f7b2291e5b200ac8c7c3b92591a4505050565b610bc582826040518060200160405280600081525061148f565b6000610f358261120f565b80519091506000906001600160a01b0316336001600160a01b03161480610f6c575033610f61846105a4565b6001600160a01b0316145b80610f7e57508151610f7e9033610457565b905080610fe85760405162461bcd60e51b815260206004820152603260248201527f455243373231413a207472616e736665722063616c6c6572206973206e6f74206044820152711bdddb995c881b9bdc88185c1c1c9bdd995960721b606482015260840161060f565b846001600160a01b031682600001516001600160a01b03161461105c5760405162461bcd60e51b815260206004820152602660248201527f455243373231413a207472616e736665722066726f6d20696e636f72726563746044820152651037bbb732b960d11b606482015260840161060f565b6001600160a01b0384166110c05760405162461bcd60e51b815260206004820152602560248201527f455243373231413a207472616e7366657220746f20746865207a65726f206164604482015264647265737360d81b606482015260840161060f565b6110d06000848460000151610eb4565b6001600160a01b03858116600090815260056020908152604080832080546001600160801b03198082166001600160801b03928316600019018316179092558986168086528386208054938416938316600190810190931693909317909255888552600490935281842080546001600160e01b031916909117600160a01b4267ffffffffffffffff16021790559086018083529120549091166111c557611178816001541190565b156111c5578251600082815260046020908152604090912080549186015167ffffffffffffffff16600160a01b026001600160e01b03199092166001600160a01b03909316929092171790555b5082846001600160a01b0316866001600160a01b03167fddf252ad1be2c89b69c2b068fc378daa952ba7f163c4a11628f55a4df523b3ef60405160405180910390a45b5050505050565b604080518082019091526000808252602082015261122e826001541190565b61128d5760405162461bcd60e51b815260206004820152602a60248201527f455243373231413a206f776e657220717565727920666f72206e6f6e657869736044820152693a32b73a103a37b5b2b760b11b606482015260840161060f565b815b6000818152600460209081526040918290208251808401909352546001600160a01b038116808452600160a01b90910467ffffffffffffffff1691830191909152156112dc579392505050565b506000190161128f565b6000546001600160a01b03163314610b995760405162461bcd60e51b815260206004820181905260248201527f4f776e61626c653a2063616c6c6572206973206e6f7420746865206f776e6572604482015260640161060f565b600080546001600160a01b038381166001600160a01b0319831681178455604051919092169283917f8be0079c531659141344cd1fd0a4f28419497f9722a3daafe3b4186f6b6457e09190a35050565b60006001600160a01b0384163b1561148357604051630a85bd0160e11b81526001600160a01b0385169063150b7a02906113d4903390899088908890600401611b49565b6020604051808303816000875af192505050801561140f575060408051601f3d908101601f1916820190925261140c91810190611b86565b60015b611469573d80801561143d576040519150601f19603f3d011682016040523d82523d6000602084013e611442565b606091505b5080516114615760405162461bcd60e51b815260040161060f90611a5a565b805181602001fd5b6001600160e01b031916630a85bd0160e11b149050611487565b5060015b949350505050565b610747838383600180546001600160a01b0385166114f95760405162461bcd60e51b815260206004820152602160248201527f455243373231413a206d696e7420746f20746865207a65726f206164647265736044820152607360f81b606482015260840161060f565b836115575760405162461bcd60e51b815260206004820152602860248201527f455243373231413a207175616e74697479206d75737420626520677265617465604482015267072207468616e20360c41b606482015260840161060f565b6001600160a01b03851660008181526005602090815260408083208054600160801b6001600160801b031982166001600160801b039283168c01831690811782900483168c01909216021790558483526004909152812080546001600160e01b031916909217600160a01b4267ffffffffffffffff16021790915581905b858110156116505760405182906001600160a01b038916906000907fddf252ad1be2c89b69c2b068fc378daa952ba7f163c4a11628f55a4df523b3ef908290a48315611644576116286000888488611390565b6116445760405162461bcd60e51b815260040161060f90611a5a565b600191820191016115d5565b50600155611208565b828054611665906119f9565b90600052602060002090601f01602090048101928261168757600085556116cd565b82601f106116a057805160ff19168380011785556116cd565b828001600101855582156116cd579182015b828111156116cd5782518255916020019190600101906116b2565b50610a529291505b80821115610a5257600081556001016116d5565b6001600160e01b031981168114610eb157600080fd5b60006020828403121561171157600080fd5b813561171c816116e9565b9392505050565b6000815180845260005b818110156117495760208185018101518683018201520161172d565b8181111561175b576000602083870101525b50601f01601f19169290920160200192915050565b60208152600061171c6020830184611723565b60006020828403121561179557600080fd5b5035919050565b80356001600160a01b03811681146117b357600080fd5b919050565b600080604083850312156117cb57600080fd5b6117d48361179c565b946020939093013593505050565b6000806000606084860312156117f757600080fd5b6118008461179c565b925061180e6020850161179c565b9150604084013590509250925092565b60006020828403121561183057600080fd5b61171c8261179c565b634e487b7160e01b600052604160045260246000fd5b600067ffffffffffffffff8084111561186a5761186a611839565b604051601f8501601f19908116603f0116810190828211818310171561189257611892611839565b816040528093508581528686860111156118ab57600080fd5b858560208301376000602087830101525050509392505050565b6000602082840312156118d757600080fd5b813567ffffffffffffffff8111156118ee57600080fd5b8201601f810184136118ff57600080fd5b6114878482356020840161184f565b6000806040838503121561192157600080fd5b61192a8361179c565b91506020830135801515811461193f57600080fd5b809150509250929050565b6000806000806080858703121561196057600080fd5b6119698561179c565b93506119776020860161179c565b925060408501359150606085013567ffffffffffffffff81111561199a57600080fd5b8501601f810187136119ab57600080fd5b6119ba8782356020840161184f565b91505092959194509250565b600080604083850312156119d957600080fd5b6119e28361179c565b91506119f06020840161179c565b90509250929050565b600181811c90821680611a0d57607f821691505b60208210811415611a2e57634e487b7160e01b600052602260045260246000fd5b50919050565b60008219821115611a5557634e487b7160e01b600052601160045260246000fd5b500190565b60208082526033908201527f455243373231413a207472616e7366657220746f206e6f6e204552433732315260408201527232b1b2b4bb32b91034b6b83632b6b2b73a32b960691b606082015260800190565b600080835481600182811c915080831680611ac957607f831692505b6020808410821415611ae957634e487b7160e01b86526022600452602486fd5b818015611afd5760018114611b0e57611b3b565b60ff19861689528489019650611b3b565b60008a81526020902060005b86811015611b335781548b820152908501908301611b1a565b505084890196505b509498975050505050505050565b6001600160a01b0385811682528416602082015260408101839052608060608201819052600090611b7c90830184611723565b9695505050505050565b600060208284031215611b9857600080fd5b815161171c816116e956fea2646970667358221220b54dce4b463cec93790b3150b6165e77dd8b10e28ebd5ebd769a06ec0dde5da964736f6c634300080b0033",
  "linkReferences": {},
  "deployedLinkReferences": {}
}